202405090010000600000000000000000099                8000000000020218901434NUÑEZ MARIA PAZ              000000000023716000000000000000000000000000000000000000000000000000000000000000000000000000000000000000000000000000000000PES00010000001 00000000000411600000000000000000000000000                              000000000000000
202405090010000600000000000000000069                8000000000020218901434NUÑEZ MARIA PAZ              000000000028300000000000000000000000000000000000000000002900000000000000000000000000000000000000000000000000000000000000PES00010000001 00000000000540000000000000000000000000000                              000000000000000
202405090010000600000000000000000096                8000000000020218901434NUÑEZ MARIA PAZ              000000000028300000000000000000000000000000000000000000002900000000000000000000000000000000000000000000000000000000000000PES00010000001 00000000000540000000000000000000000000000                              000000000000000
202405090010000300000000000000000567                8000000000020218901434NUÑEZ MARIA PAZ              000000000120000000000000000000000000000000000000000000000000000000000000000000000000000000000000000000000000000000000000PES00010000001 00000000000000000000000000000000000000000                              000000000000000
